BL51 BANKED LINKER/LOCATER V6.22                                                        10/12/2022  21:41:09  PAGE 1


BL51 BANKED LINKER/LOCATER V6.22, INVOKED BY:
D:\SCM\KEIL5\C51\BIN\BL51.EXE main.obj TO template RAMSIZE (256)


MEMORY MODEL: SMALL


INPUT MODULES INCLUDED:
  main.obj (MAIN)
  D:\SCM\KEIL5\C51\LIB\C51S.LIB (?C_STARTUP)
  D:\SCM\KEIL5\C51\LIB\C51S.LIB (?C_INIT)


LINK MAP OF MODULE:  template (MAIN)


            TYPE    BASE      LENGTH    RELOCATION   SEGMENT NAME
            -----------------------------------------------------

            * * * * * * *   D A T A   M E M O R Y   * * * * * * *
            REG     0000H     0008H     ABSOLUTE     "REG BANK 0"
            DATA    0008H     0011H     UNIT         ?DT?MAIN
            IDATA   0019H     0001H     UNIT         ?STACK

            * * * * * * *   C O D E   M E M O R Y   * * * * * * *
            CODE    0000H     0003H     ABSOLUTE     
            CODE    0003H     008CH     UNIT         ?C_C51STARTUP
            CODE    008FH     006AH     UNIT         ?PR?SMG_DISPLAY?MAIN
            CODE    00F9H     0014H     UNIT         ?C_INITSEG
            CODE    010DH     000BH     UNIT         ?PR?_DELAY_10US?MAIN
            CODE    0118H     0005H     UNIT         ?PR?MAIN?MAIN



OVERLAY MAP OF MODULE:   template (MAIN)


SEGMENT
  +--> CALLED SEGMENT
---------------------
?C_C51STARTUP
  +--> ?PR?MAIN?MAIN
  +--> ?C_INITSEG

?PR?MAIN?MAIN
  +--> ?PR?SMG_DISPLAY?MAIN

?PR?SMG_DISPLAY?MAIN
  +--> ?PR?_DELAY_10US?MAIN



SYMBOL TABLE OF MODULE:  template (MAIN)

  VALUE           TYPE          NAME
  ----------------------------------

  -------         MODULE        MAIN
BL51 BANKED LINKER/LOCATER V6.22                                                      10/12/2022  21:41:09  PAGE 2


  C:0000H         SYMBOL        _ICE_DUMMY_
  D:0080H         PUBLIC        P0
  D:0090H         PUBLIC        P1
  D:00A0H         PUBLIC        P2
  D:00B0H         PUBLIC        P3
  D:00A8H         PUBLIC        IE
  D:00B8H         PUBLIC        IP
  C:008FH         PUBLIC        smg_display
  C:0118H         PUBLIC        main
  D:0008H         PUBLIC        gsmg_code
  D:0098H         PUBLIC        SCON
  D:0088H         PUBLIC        TCON
  C:010DH         PUBLIC        _delay_10us
  B:00A0H.2       PUBLIC        LSA
  B:00A0H.3       PUBLIC        LSB
  B:00A0H.4       PUBLIC        LSC
  D:00C8H         PUBLIC        T2CON
  D:00D0H         PUBLIC        PSW
  -------         PROC          _DELAY_10US
  D:0006H         SYMBOL        ten_us
  C:010DH         LINE#         29
  C:010DH         LINE#         30
  C:010DH         LINE#         31
  C:0117H         LINE#         32
  -------         ENDPROC       _DELAY_10US
  -------         PROC          SMG_DISPLAY
  -------         DO            
  D:0005H         SYMBOL        i
  -------         ENDDO         
  C:008FH         LINE#         40
  C:008FH         LINE#         41
  C:008FH         LINE#         42
  C:0091H         LINE#         44
  C:0091H         LINE#         45
  C:0091H         LINE#         46
  C:00B6H         LINE#         47
  C:00B6H         LINE#         48
  C:00BAH         LINE#         49
  C:00BEH         LINE#         50
  C:00C2H         LINE#         51
  C:00C6H         LINE#         52
  C:00CEH         LINE#         53
  C:00D6H         LINE#         54
  C:00DEH         LINE#         55
  C:00E4H         LINE#         56
  C:00E4H         LINE#         57
  C:00EBH         LINE#         58
  C:00F2H         LINE#         59
  C:00F8H         LINE#         60
  -------         ENDPROC       SMG_DISPLAY
  -------         PROC          MAIN
  C:0118H         LINE#         68
  C:0118H         LINE#         69
  C:0118H         LINE#         70
  C:0118H         LINE#         71
  C:0118H         LINE#         72
  C:011BH         LINE#         73
BL51 BANKED LINKER/LOCATER V6.22                                                      10/12/2022  21:41:09  PAGE 3


  -------         ENDPROC       MAIN
  -------         ENDMOD        MAIN

Program Size: data=26.0 xdata=0 code=285
LINK/LOCATE RUN COMPLETE.  0 WARNING(S),  0 ERROR(S)
