BL51 BANKED LINKER/LOCATER V6.22.2.0                                                    02/01/2023  00:28:53  PAGE 1


BL51 BANKED LINKER/LOCATER V6.22.2.0, INVOKED BY:
D:\KEIL_V5\C51\BIN\BL51.EXE .\Objects\STARTUP.obj, .\Objects\main.obj TO .\Objects\Template PRINT (.\Listings\Template.m
>> 51) RAMSIZE (256)


MEMORY MODEL: SMALL


INPUT MODULES INCLUDED:
  .\Objects\STARTUP.obj (?C_STARTUP)
  .\Objects\main.obj (MAIN)


LINK MAP OF MODULE:  .\Objects\Template (?C_STARTUP)


            TYPE    BASE      LENGTH    RELOCATION   SEGMENT NAME
            -----------------------------------------------------

            * * * * * * *   D A T A   M E M O R Y   * * * * * * *
            REG     0000H     0008H     ABSOLUTE     "REG BANK 0"
            IDATA   0008H     0001H     UNIT         ?STACK

            * * * * * * *   C O D E   M E M O R Y   * * * * * * *
            CODE    0000H     0003H     ABSOLUTE     
            CODE    0003H     001BH     UNIT         ?PR?UART?MAIN
                    001EH     0005H                  *** GAP ***
            CODE    0023H     0003H     ABSOLUTE     
            CODE    0026H     0014H     UNIT         ?PR?_UART_INIT?MAIN
            CODE    003AH     000CH     UNIT         ?C_C51STARTUP
            CODE    0046H     000BH     UNIT         ?PR?_DELAY?MAIN
            CODE    0051H     0007H     UNIT         ?PR?MAIN?MAIN



OVERLAY MAP OF MODULE:   .\Objects\Template (?C_STARTUP)


SEGMENT
  +--> CALLED SEGMENT
---------------------
?C_C51STARTUP
  +--> ?PR?MAIN?MAIN

?PR?MAIN?MAIN
  +--> ?PR?_UART_INIT?MAIN



SYMBOL TABLE OF MODULE:  .\Objects\Template (?C_STARTUP)

  VALUE           TYPE          NAME
  ----------------------------------

  -------         MODULE        ?C_STARTUP
  C:003AH         SEGMENT       ?C_C51STARTUP
  I:0008H         SEGMENT       ?STACK
  C:0000H         PUBLIC        ?C_STARTUP
BL51 BANKED LINKER/LOCATER V6.22.2.0                                                  02/01/2023  00:28:53  PAGE 2


  D:00E0H         SYMBOL        ACC
  D:00F0H         SYMBOL        B
  D:0083H         SYMBOL        DPH
  D:0082H         SYMBOL        DPL
  N:0000H         SYMBOL        IBPSTACK
  N:0100H         SYMBOL        IBPSTACKTOP
  N:0080H         SYMBOL        IDATALEN
  C:003DH         SYMBOL        IDATALOOP
  N:0000H         SYMBOL        PBPSTACK
  N:0100H         SYMBOL        PBPSTACKTOP
  N:0000H         SYMBOL        PDATALEN
  N:0000H         SYMBOL        PDATASTART
  N:0000H         SYMBOL        PPAGE
  N:0000H         SYMBOL        PPAGEENABLE
  D:00A0H         SYMBOL        PPAGE_SFR
  D:0081H         SYMBOL        SP
  C:003AH         SYMBOL        STARTUP1
  N:0000H         SYMBOL        XBPSTACK
  N:0000H         SYMBOL        XBPSTACKTOP
  N:0000H         SYMBOL        XDATALEN
  N:0000H         SYMBOL        XDATASTART
  C:0000H         LINE#         126
  C:003AH         LINE#         133
  C:003CH         LINE#         134
  C:003DH         LINE#         135
  C:003EH         LINE#         136
  C:0040H         LINE#         185
  C:0043H         LINE#         196
  -------         ENDMOD        ?C_STARTUP

  -------         MODULE        MAIN
  C:0000H         SYMBOL        _ICE_DUMMY_
  D:0090H         PUBLIC        P1
  D:00B0H         PUBLIC        P3
  B:00A8H.7       PUBLIC        EA
  D:00A8H         PUBLIC        IE
  C:0046H         PUBLIC        _delay
  B:00A8H.4       PUBLIC        ES
  D:00B8H         PUBLIC        IP
  B:0098H.0       PUBLIC        RI
  B:0098H.1       PUBLIC        TI
  C:0051H         PUBLIC        main
  D:0099H         PUBLIC        SBUF
  D:0087H         PUBLIC        PCON
  D:0098H         PUBLIC        SCON
  D:0089H         PUBLIC        TMOD
  D:0088H         PUBLIC        TCON
  C:0003H         PUBLIC        uart
  D:008DH         PUBLIC        TH1
  D:008BH         PUBLIC        TL1
  C:0026H         PUBLIC        _uart_init
  B:0088H.6       PUBLIC        TR1
  D:00C8H         PUBLIC        T2CON
  D:00D0H         PUBLIC        PSW
  -------         PROC          _DELAY
  D:0006H         SYMBOL        i
  C:0046H         LINE#         6
BL51 BANKED LINKER/LOCATER V6.22.2.0                                                  02/01/2023  00:28:53  PAGE 3


  C:0046H         LINE#         7
  C:0046H         LINE#         8
  C:0050H         LINE#         9
  -------         ENDPROC       _DELAY
  -------         PROC          _UART_INIT
  D:0007H         SYMBOL        baud
  C:0026H         LINE#         11
  C:0026H         LINE#         12
  C:0026H         LINE#         13
  C:0029H         LINE#         14
  C:002CH         LINE#         15
  C:002FH         LINE#         16
  C:0031H         LINE#         17
  C:0033H         LINE#         18
  C:0035H         LINE#         19
  C:0037H         LINE#         20
  C:0039H         LINE#         21
  -------         ENDPROC       _UART_INIT
  -------         PROC          MAIN
  C:0051H         LINE#         23
  C:0051H         LINE#         24
  C:0051H         LINE#         25
  C:0056H         LINE#         26
  C:0056H         LINE#         27
  C:0056H         LINE#         29
  -------         ENDPROC       MAIN
  -------         PROC          UART
  -------         DO            
  D:0007H         SYMBOL        rec_data
  -------         ENDDO         
  C:0003H         LINE#         32
  C:000CH         LINE#         34
  C:000CH         LINE#         35
  C:000EH         LINE#         36
  C:0010H         LINE#         37
  C:0012H         LINE#         38
  C:0015H         LINE#         39
  C:0017H         LINE#         41
  -------         ENDPROC       UART
  -------         ENDMOD        MAIN

*** WARNING L16: UNCALLED SEGMENT, IGNORED FOR OVERLAY PROCESS
    SEGMENT: ?PR?_DELAY?MAIN

Program Size: data=9.0 xdata=0 code=83
LINK/LOCATE RUN COMPLETE.  1 WARNING(S),  0 ERROR(S)
