BL51 BANKED LINKER/LOCATER V6.22                                                        03/05/2023  00:25:35  PAGE 1


BL51 BANKED LINKER/LOCATER V6.22, INVOKED BY:
D:\KEIL5\C51\BIN\BL51.EXE .\Objects\STARTUP.obj, .\Objects\main.obj TO .\Objects\Template PRINT (.\Listings\Template.m51
>> ) RAMSIZE (256)


MEMORY MODEL: SMALL


INPUT MODULES INCLUDED:
  .\Objects\STARTUP.obj (?C_STARTUP)
  .\Objects\main.obj (MAIN)


LINK MAP OF MODULE:  .\Objects\Template (?C_STARTUP)


            TYPE    BASE      LENGTH    RELOCATION   SEGMENT NAME
            -----------------------------------------------------

            * * * * * * *   D A T A   M E M O R Y   * * * * * * *
            REG     0000H     0008H     ABSOLUTE     "REG BANK 0"
            DATA    0008H     0001H     UNIT         _DATA_GROUP_
            IDATA   0009H     0001H     UNIT         ?STACK

            * * * * * * *   C O D E   M E M O R Y   * * * * * * *
            CODE    0000H     0003H     ABSOLUTE     
            CODE    0003H     001EH     UNIT         ?PR?MAIN?MAIN
            CODE    0021H     000FH     UNIT         ?PR?DELAY800MS?MAIN
            CODE    0030H     000CH     UNIT         ?C_C51STARTUP



OVERLAY MAP OF MODULE:   .\Objects\Template (?C_STARTUP)


SEGMENT                          DATA_GROUP 
  +--> CALLED SEGMENT          START    LENGTH
----------------------------------------------
?C_C51STARTUP                  -----    -----
  +--> ?PR?MAIN?MAIN

?PR?MAIN?MAIN                  0008H    0001H
  +--> ?PR?DELAY800MS?MAIN



SYMBOL TABLE OF MODULE:  .\Objects\Template (?C_STARTUP)

  VALUE           TYPE          NAME
  ----------------------------------

  -------         MODULE        ?C_STARTUP
  C:0030H         SEGMENT       ?C_C51STARTUP
  I:0009H         SEGMENT       ?STACK
  C:0000H         PUBLIC        ?C_STARTUP
  D:00E0H         SYMBOL        ACC
  D:00F0H         SYMBOL        B
  D:0083H         SYMBOL        DPH
BL51 BANKED LINKER/LOCATER V6.22                                                      03/05/2023  00:25:35  PAGE 2


  D:0082H         SYMBOL        DPL
  N:0000H         SYMBOL        IBPSTACK
  N:0100H         SYMBOL        IBPSTACKTOP
  N:0080H         SYMBOL        IDATALEN
  C:0033H         SYMBOL        IDATALOOP
  N:0000H         SYMBOL        PBPSTACK
  N:0100H         SYMBOL        PBPSTACKTOP
  N:0000H         SYMBOL        PDATALEN
  N:0000H         SYMBOL        PDATASTART
  N:0000H         SYMBOL        PPAGE
  N:0000H         SYMBOL        PPAGEENABLE
  D:00A0H         SYMBOL        PPAGE_SFR
  D:0081H         SYMBOL        SP
  C:0030H         SYMBOL        STARTUP1
  N:0000H         SYMBOL        XBPSTACK
  N:0000H         SYMBOL        XBPSTACKTOP
  N:0000H         SYMBOL        XDATALEN
  N:0000H         SYMBOL        XDATASTART
  C:0000H         LINE#         126
  C:0030H         LINE#         133
  C:0032H         LINE#         134
  C:0033H         LINE#         135
  C:0034H         LINE#         136
  C:0036H         LINE#         185
  C:0039H         LINE#         196
  -------         ENDMOD        ?C_STARTUP

  -------         MODULE        MAIN
  C:0000H         SYMBOL        _ICE_DUMMY_
  D:0090H         PUBLIC        P1
  D:00A0H         PUBLIC        P2
  D:00B0H         PUBLIC        P3
  D:00A8H         PUBLIC        IE
  D:00B8H         PUBLIC        IP
  B:00A0H.1       PUBLIC        relay
  C:0003H         PUBLIC        main
  B:00B0H.3       PUBLIC        D3_OFF
  D:0098H         PUBLIC        SCON
  D:0088H         PUBLIC        TCON
  D:00C8H         PUBLIC        T2CON
  C:0021H         PUBLIC        Delay800ms
  B:00B0H.1       PUBLIC        vibrate
  B:00B0H.5       PUBLIC        D0_ON
  B:00A0H.7       PUBLIC        D7
  D:00D0H         PUBLIC        PSW
  -------         PROC          DELAY800MS
  -------         DO            
  D:0007H         SYMBOL        i
  D:0006H         SYMBOL        j
  D:0005H         SYMBOL        k
  -------         ENDDO         
  C:0021H         LINE#         10
  C:0021H         LINE#         11
  C:0021H         LINE#         14
  C:0022H         LINE#         15
  C:0023H         LINE#         16
  C:0025H         LINE#         17
BL51 BANKED LINKER/LOCATER V6.22                                                      03/05/2023  00:25:35  PAGE 3


  C:0027H         LINE#         18
  C:0029H         LINE#         20
  C:0029H         LINE#         22
  C:0029H         LINE#         23
  C:002BH         LINE#         24
  C:002DH         LINE#         25
  C:002FH         LINE#         26
  -------         ENDPROC       DELAY800MS
  -------         PROC          MAIN
  -------         DO            
  D:0008H         SYMBOL        i
  -------         ENDDO         
  C:0003H         LINE#         28
  C:0003H         LINE#         29
  C:0003H         LINE#         30
  C:0006H         LINE#         31
  C:0006H         LINE#         32
  C:0006H         LINE#         33
  C:0009H         LINE#         34
  C:0009H         LINE#         35
  C:000BH         LINE#         36
  C:000BH         LINE#         37
  C:0011H         LINE#         38
  C:0011H         LINE#         39
  C:0013H         LINE#         40
  C:0016H         LINE#         41
  C:0018H         LINE#         42
  C:0018H         LINE#         43
  C:001BH         LINE#         44
  C:001BH         LINE#         45
  C:001DH         LINE#         46
  C:001FH         LINE#         47
  C:001FH         LINE#         48
  -------         ENDPROC       MAIN
  -------         ENDMOD        MAIN

Program Size: data=10.0 xdata=0 code=60
LINK/LOCATE RUN COMPLETE.  0 WARNING(S),  0 ERROR(S)
