C51 COMPILER V9.59.0.0   MAIN                                                              10/13/2022 22:09:47 PAGE 1   


C51 COMPILER V9.59.0.0, COMPILATION OF MODULE MAIN
OBJECT MODULE PLACED IN .\Objects\main.obj
COMPILER INVOKED BY: C:\Keil_v5\C51\BIN\C51.EXE main.c OPTIMIZE(8,SPEED) BROWSE DEBUG OBJECTEXTEND PRINT(.\Listings\main
                    -.lst) TABS(2) OBJECT(.\Objects\main.obj)

line level    source

   1          #include "reg52.h"
   2          
   3          #define SMG_PROT P0
   4          
   5          sbit LSA=P2^2;
   6          sbit LSB=P2^3;
   7          sbit LSC=P2^4;
   8          
   9          typedef unsigned int u16;
  10          typedef unsigned char u8;
  11          
  12          u8 gsmg_code[17]={0x3f,0x06,0x5b,0x4f,0x66,0x6d,0x7d,0x07,
  13                         0x7f,0x6f,0x77,0x7c,0x39,0x5e,0x79,0x71};
  14          
  15          void delay(u16 ten)
  16          {
  17   1        while(ten--);
  18   1      } 
  19          
  20          void smg_display(void)
  21          {
  22   1          u8 i = 0;
  23   1        for(i=0;i<8;i++)
  24   1        {
  25   2          switch(i)
  26   2          {
  27   3            case 0: LSC = 1; LSB = 1; LSA = 1; break;
  28   3            case 1: LSC = 1; LSB = 1; LSA = 0; break;
  29   3            case 2: LSC = 1; LSB = 0; LSA = 1; break;
  30   3            case 3: LSC = 1; LSB = 0; LSA = 0; break;
  31   3            case 4: LSC = 0; LSB = 1; LSA = 1; break;
  32   3            case 5: LSC = 0; LSB = 1; LSA = 0; break;
  33   3            case 6: LSC = 0; LSB = 0; LSA = 1; break;
  34   3            case 7: LSC = 0; LSB = 0; LSA = 0; break;
  35   3          }
  36   2          SMG_PROT=gsmg_code[i];
  37   2          delay(50000);
  38   2        }
  39   1        for(i=0;i<8;i++)
  40   1        {
  41   2          
  42   2            LSC = 0; LSB = 0; LSA = 0;
  43   2            SMG_PROT=gsmg_code[i];
  44   2            delay(25000);
  45   2            LSC = 0; LSB = 0; LSA = 1;
  46   2            SMG_PROT=gsmg_code[i];
  47   2      
  48   2            LSC = 0; LSB = 1; LSA = 0;
  49   2            SMG_PROT=gsmg_code[i];
  50   2            delay(25000);
  51   2            LSC = 0; LSB = 1; LSA = 1;
  52   2            SMG_PROT=gsmg_code[i];
  53   2      
  54   2            LSC = 1; LSB = 0; LSA = 0;
C51 COMPILER V9.59.0.0   MAIN                                                              10/13/2022 22:09:47 PAGE 2   

  55   2            SMG_PROT=gsmg_code[i];
  56   2            delay(25000);
  57   2            LSC = 1; LSB = 0; LSA = 1;
  58   2            SMG_PROT=gsmg_code[i];
  59   2      
  60   2            LSC = 1; LSB = 1; LSA = 0;
  61   2            SMG_PROT=gsmg_code[i];
  62   2            delay(25000);
  63   2            LSC = 1; LSB = 1; LSA = 1;
  64   2            SMG_PROT=gsmg_code[i];
  65   2        }
  66   1        for(i=8;i<16;i++)
  67   1        {
  68   2          
  69   2            LSC = 0; LSB = 0; LSA = 0;
  70   2            SMG_PROT=gsmg_code[i];
  71   2            
  72   2            LSC = 0; LSB = 0; LSA = 1;
  73   2            SMG_PROT=gsmg_code[i];
  74   2            delay(25000);
  75   2            LSC = 0; LSB = 1; LSA = 0;
  76   2            SMG_PROT=gsmg_code[i];
  77   2            
  78   2            LSC = 0; LSB = 1; LSA = 1;
  79   2            SMG_PROT=gsmg_code[i];
  80   2            delay(25000);
  81   2            LSC = 1; LSB = 0; LSA = 0;
  82   2            SMG_PROT=gsmg_code[i];
  83   2            
  84   2            LSC = 1; LSB = 0; LSA = 1;
  85   2            SMG_PROT=gsmg_code[i];
  86   2            delay(25000);
  87   2            LSC = 1; LSB = 1; LSA = 0;
  88   2            SMG_PROT=gsmg_code[i];
  89   2            
  90   2            LSC = 1; LSB = 1; LSA = 1;
  91   2            SMG_PROT=gsmg_code[i];
  92   2            delay(25000);
  93   2        }
  94   1      }
  95                         
  96          void main()
  97          {
  98   1        while(1)
  99   1        {
 100   2          smg_display();
 101   2        }
 102   1      }


MODULE INFORMATION:   STATIC OVERLAYABLE
   CODE SIZE        =    339    ----
   CONSTANT SIZE    =   ----    ----
   XDATA SIZE       =   ----    ----
   PDATA SIZE       =   ----    ----
   DATA SIZE        =     17    ----
   IDATA SIZE       =   ----    ----
   BIT SIZE         =   ----    ----
END OF MODULE INFORMATION.


C51 COMPILATION COMPLETE.  0 WARNING(S),  0 ERROR(S)
