BL51 BANKED LINKER/LOCATER V6.22.2.0                                                    10/14/2022  08:06:36  PAGE 1


BL51 BANKED LINKER/LOCATER V6.22.2.0, INVOKED BY:
C:\KEIL_V5\C51\BIN\BL51.EXE .\Objects\STARTUP.obj, .\Objects\main.obj TO .\Objects\Template PRINT (.\Listings\Template.m
>> 51)


MEMORY MODEL: SMALL


INPUT MODULES INCLUDED:
  .\Objects\STARTUP.obj (?C_STARTUP)
  .\Objects\main.obj (MAIN)
  C:\KEIL_V5\C51\LIB\C51S.LIB (?C_INIT)


LINK MAP OF MODULE:  .\Objects\Template (?C_STARTUP)


            TYPE    BASE      LENGTH    RELOCATION   SEGMENT NAME
            -----------------------------------------------------

            * * * * * * *   D A T A   M E M O R Y   * * * * * * *
            REG     0000H     0008H     ABSOLUTE     "REG BANK 0"
            DATA    0008H     0011H     UNIT         ?DT?MAIN
            IDATA   0019H     0001H     UNIT         ?STACK

            * * * * * * *   C O D E   M E M O R Y   * * * * * * *
            CODE    0000H     0003H     ABSOLUTE     
            CODE    0003H     0139H     UNIT         ?PR?SMG_DISPLAY?MAIN
            CODE    013CH     008CH     UNIT         ?C_C51STARTUP
            CODE    01C8H     0015H     UNIT         ?PR?_DELAY?MAIN
            CODE    01DDH     0014H     UNIT         ?C_INITSEG
            CODE    01F1H     0005H     UNIT         ?PR?MAIN?MAIN



OVERLAY MAP OF MODULE:   .\Objects\Template (?C_STARTUP)


SEGMENT
  +--> CALLED SEGMENT
---------------------
?C_C51STARTUP
  +--> ?PR?MAIN?MAIN
  +--> ?C_INITSEG

?PR?MAIN?MAIN
  +--> ?PR?SMG_DISPLAY?MAIN

?PR?SMG_DISPLAY?MAIN
  +--> ?PR?_DELAY?MAIN



SYMBOL TABLE OF MODULE:  .\Objects\Template (?C_STARTUP)

  VALUE           TYPE          NAME
  ----------------------------------

BL51 BANKED LINKER/LOCATER V6.22.2.0                                                  10/14/2022  08:06:36  PAGE 2


  -------         MODULE        ?C_STARTUP
  C:013CH         SEGMENT       ?C_C51STARTUP
  I:0019H         SEGMENT       ?STACK
  C:0000H         PUBLIC        ?C_STARTUP
  D:00E0H         SYMBOL        ACC
  D:00F0H         SYMBOL        B
  D:0083H         SYMBOL        DPH
  D:0082H         SYMBOL        DPL
  N:0000H         SYMBOL        IBPSTACK
  N:0100H         SYMBOL        IBPSTACKTOP
  N:0080H         SYMBOL        IDATALEN
  C:013FH         SYMBOL        IDATALOOP
  N:0000H         SYMBOL        PBPSTACK
  N:0100H         SYMBOL        PBPSTACKTOP
  N:0000H         SYMBOL        PDATALEN
  N:0000H         SYMBOL        PDATASTART
  N:0000H         SYMBOL        PPAGE
  N:0000H         SYMBOL        PPAGEENABLE
  D:00A0H         SYMBOL        PPAGE_SFR
  D:0081H         SYMBOL        SP
  C:013CH         SYMBOL        STARTUP1
  N:0000H         SYMBOL        XBPSTACK
  N:0000H         SYMBOL        XBPSTACKTOP
  N:0000H         SYMBOL        XDATALEN
  N:0000H         SYMBOL        XDATASTART
  C:0000H         LINE#         126
  C:013CH         LINE#         133
  C:013EH         LINE#         134
  C:013FH         LINE#         135
  C:0140H         LINE#         136
  C:0142H         LINE#         185
  C:0145H         LINE#         196
  -------         ENDMOD        ?C_STARTUP

  -------         MODULE        MAIN
  C:0000H         SYMBOL        _ICE_DUMMY_
  D:0080H         PUBLIC        P0
  D:0090H         PUBLIC        P1
  D:00A0H         PUBLIC        P2
  D:00B0H         PUBLIC        P3
  D:00A8H         PUBLIC        IE
  C:01D2H         PUBLIC        _delay
  D:00B8H         PUBLIC        IP
  C:0003H         PUBLIC        smg_display
  C:01F1H         PUBLIC        main
  D:0008H         PUBLIC        gsmg_code
  D:0098H         PUBLIC        SCON
  D:0088H         PUBLIC        TCON
  B:00A0H.2       PUBLIC        LSA
  B:00A0H.3       PUBLIC        LSB
  B:00A0H.4       PUBLIC        LSC
  D:00C8H         PUBLIC        T2CON
  D:00D0H         PUBLIC        PSW
  C:01CAH         SYMBOL        L?0034
  C:01CCH         SYMBOL        L?0035
  -------         PROC          L?0033
  -------         ENDPROC       L?0033
BL51 BANKED LINKER/LOCATER V6.22.2.0                                                  10/14/2022  08:06:36  PAGE 3


  C:01CAH         SYMBOL        L?0034
  C:01CCH         SYMBOL        L?0035
  -------         PROC          _DELAY
  D:0006H         SYMBOL        ten
  C:01D2H         LINE#         15
  C:01D2H         LINE#         16
  C:01D2H         LINE#         17
  C:01DCH         LINE#         18
  -------         ENDPROC       _DELAY
  -------         PROC          SMG_DISPLAY
  -------         DO            
  D:0005H         SYMBOL        i
  -------         ENDDO         
  C:0003H         LINE#         20
  C:0003H         LINE#         21
  C:0003H         LINE#         22
  C:0005H         LINE#         23
  C:000FH         LINE#         24
  C:000FH         LINE#         25
  C:0034H         LINE#         26
  C:0034H         LINE#         27
  C:0038H         LINE#         28
  C:003CH         LINE#         29
  C:0040H         LINE#         30
  C:0044H         LINE#         31
  C:004CH         LINE#         32
  C:0054H         LINE#         33
  C:005CH         LINE#         34
  C:0062H         LINE#         35
  C:0062H         LINE#         36
  C:0069H         LINE#         37
  C:0070H         LINE#         38
  C:0073H         LINE#         39
  C:007FH         LINE#         40
  C:007FH         LINE#         42
  C:0085H         LINE#         43
  C:008AH         LINE#         44
  C:008DH         LINE#         45
  C:0093H         LINE#         46
  C:009AH         LINE#         48
  C:00A0H         LINE#         49
  C:00A0H         LINE#         50
  C:00A3H         LINE#         51
  C:00A9H         LINE#         52
  C:00B0H         LINE#         54
  C:00B6H         LINE#         55
  C:00B6H         LINE#         56
  C:00B9H         LINE#         57
  C:00BFH         LINE#         58
  C:00C6H         LINE#         60
  C:00CCH         LINE#         61
  C:00CCH         LINE#         62
  C:00CFH         LINE#         63
  C:00D5H         LINE#         64
  C:00DCH         LINE#         65
  C:00E0H         LINE#         66
  C:00ECH         LINE#         67
BL51 BANKED LINKER/LOCATER V6.22.2.0                                                  10/14/2022  08:06:36  PAGE 4


  C:00ECH         LINE#         69
  C:00F2H         LINE#         70
  C:00F9H         LINE#         72
  C:00FBH         LINE#         73
  C:00FBH         LINE#         74
  C:00FEH         LINE#         75
  C:0104H         LINE#         76
  C:010BH         LINE#         78
  C:010FH         LINE#         79
  C:010FH         LINE#         80
  C:0112H         LINE#         81
  C:0118H         LINE#         82
  C:011FH         LINE#         84
  C:0121H         LINE#         85
  C:0121H         LINE#         86
  C:0124H         LINE#         87
  C:012AH         LINE#         88
  C:0131H         LINE#         90
  C:0135H         LINE#         91
  C:0135H         LINE#         92
  C:0138H         LINE#         93
  C:013BH         LINE#         94
  -------         ENDPROC       SMG_DISPLAY
  -------         PROC          MAIN
  C:01F1H         LINE#         96
  C:01F1H         LINE#         97
  C:01F1H         LINE#         98
  C:01F1H         LINE#         99
  C:01F1H         LINE#         100
  C:01F4H         LINE#         101
  -------         ENDPROC       MAIN
  -------         ENDMOD        MAIN

Program Size: data=26.0 xdata=0 code=502
LINK/LOCATE RUN COMPLETE.  0 WARNING(S),  0 ERROR(S)
