:03000000020003F8
:0C000300787FE4F6D8FD75811802004AF1
:1000AC0010083F065B4F666D7D077F6F777C395E6E
:0200BC00797158
:0B00BF00EF1FAC0670011E4C70F62213
:10008F00E4F51874082518F8E6F5807F507EC31242
:0D009F0000BF0518E518C3941040E880E389
:10000F0002008FE493A3F8E493A34003F68001F278
:10001F0008DFF48029E493A3F85407240CC8C333F2
:10002F00C4540F4420C8834004F456800146F6DFC1
:10003F00E4800B01020408102040809000ACE47EA5
:10004F00019360BCA3FF543F30E509541FFEE493B6
:10005F00A360010ECF54C025E060A840B8E493A37D
:10006F00FAE493A3F8E493A3C8C582C8CAC583CAA8
:10007F00F0A3C8C582C8CAC583CADFE9DEE780BE60
:0100BE000041
:00000001FF
