BL51 BANKED LINKER/LOCATER V6.22.2.0                                                    12/27/2022  19:00:09  PAGE 1


BL51 BANKED LINKER/LOCATER V6.22.2.0, INVOKED BY:
D:\KEIL_V5\C51\BIN\BL51.EXE .\Objects\STARTUP.obj, .\Objects\main.obj TO .\Objects\Template PRINT (.\Listings\Template.m
>> 51)


MEMORY MODEL: SMALL


INPUT MODULES INCLUDED:
  .\Objects\STARTUP.obj (?C_STARTUP)
  .\Objects\main.obj (MAIN)
  D:\KEIL_V5\C51\LIB\C51S.LIB (?C_INIT)


LINK MAP OF MODULE:  .\Objects\Template (?C_STARTUP)


            TYPE    BASE      LENGTH    RELOCATION   SEGMENT NAME
            -----------------------------------------------------

            * * * * * * *   D A T A   M E M O R Y   * * * * * * *
            REG     0000H     0008H     ABSOLUTE     "REG BANK 0"
            DATA    0008H     0018H     UNIT         ?DT?MAIN
            IDATA   0020H     0001H     UNIT         ?STACK

            * * * * * * *   C O D E   M E M O R Y   * * * * * * *
            CODE    0000H     0003H     ABSOLUTE     
            CODE    0003H     008CH     UNIT         ?C_C51STARTUP
            CODE    008FH     007EH     UNIT         ?PR?MAIN?MAIN
            CODE    010DH     0070H     UNIT         ?PR?SMG?MAIN
            CODE    017DH     0013H     UNIT         ?PR?_DELAY?MAIN
            CODE    0190H     0013H     UNIT         ?C_INITSEG



OVERLAY MAP OF MODULE:   .\Objects\Template (?C_STARTUP)


SEGMENT
  +--> CALLED SEGMENT
---------------------
?C_C51STARTUP
  +--> ?PR?MAIN?MAIN
  +--> ?C_INITSEG

?PR?MAIN?MAIN
  +--> ?PR?SMG?MAIN
  +--> ?PR?_DELAY?MAIN

?PR?SMG?MAIN
  +--> ?PR?_DELAY?MAIN



SYMBOL TABLE OF MODULE:  .\Objects\Template (?C_STARTUP)

  VALUE           TYPE          NAME
  ----------------------------------
BL51 BANKED LINKER/LOCATER V6.22.2.0                                                  12/27/2022  19:00:09  PAGE 2



  -------         MODULE        ?C_STARTUP
  C:0003H         SEGMENT       ?C_C51STARTUP
  I:0020H         SEGMENT       ?STACK
  C:0000H         PUBLIC        ?C_STARTUP
  D:00E0H         SYMBOL        ACC
  D:00F0H         SYMBOL        B
  D:0083H         SYMBOL        DPH
  D:0082H         SYMBOL        DPL
  N:0000H         SYMBOL        IBPSTACK
  N:0100H         SYMBOL        IBPSTACKTOP
  N:0080H         SYMBOL        IDATALEN
  C:0006H         SYMBOL        IDATALOOP
  N:0000H         SYMBOL        PBPSTACK
  N:0100H         SYMBOL        PBPSTACKTOP
  N:0000H         SYMBOL        PDATALEN
  N:0000H         SYMBOL        PDATASTART
  N:0000H         SYMBOL        PPAGE
  N:0000H         SYMBOL        PPAGEENABLE
  D:00A0H         SYMBOL        PPAGE_SFR
  D:0081H         SYMBOL        SP
  C:0003H         SYMBOL        STARTUP1
  N:0000H         SYMBOL        XBPSTACK
  N:0000H         SYMBOL        XBPSTACKTOP
  N:0000H         SYMBOL        XDATALEN
  N:0000H         SYMBOL        XDATASTART
  C:0000H         LINE#         126
  C:0003H         LINE#         133
  C:0005H         LINE#         134
  C:0006H         LINE#         135
  C:0007H         LINE#         136
  C:0009H         LINE#         185
  C:000CH         LINE#         196
  -------         ENDMOD        ?C_STARTUP

  -------         MODULE        MAIN
  C:0000H         SYMBOL        _ICE_DUMMY_
  D:0080H         PUBLIC        P0
  D:0090H         PUBLIC        P1
  D:00A0H         PUBLIC        P2
  D:00B0H         PUBLIC        P3
  D:00A8H         PUBLIC        IE
  C:0185H         PUBLIC        _delay
  D:00B8H         PUBLIC        IP
  C:008FH         PUBLIC        main
  D:0008H         PUBLIC        gsmg_code
  D:0098H         PUBLIC        SCON
  D:0088H         PUBLIC        TCON
  C:010DH         PUBLIC        smg
  D:0018H         PUBLIC        a
  B:00A0H.2       PUBLIC        LSA
  D:0019H         PUBLIC        b
  B:00A0H.3       PUBLIC        LSB
  D:001AH         PUBLIC        c
  B:00A0H.4       PUBLIC        LSC
  D:001BH         PUBLIC        d
  D:001CH         PUBLIC        e
BL51 BANKED LINKER/LOCATER V6.22.2.0                                                  12/27/2022  19:00:09  PAGE 3


  D:001DH         PUBLIC        f
  D:001EH         PUBLIC        g
  D:001FH         PUBLIC        h
  D:00C8H         PUBLIC        T2CON
  D:00D0H         PUBLIC        PSW
  C:017DH         SYMBOL        L?0017
  -------         PROC          L?0016
  -------         ENDPROC       L?0016
  C:017DH         SYMBOL        L?0017
  -------         PROC          _DELAY
  D:0006H         SYMBOL        ten
  C:0185H         LINE#         16
  C:0185H         LINE#         17
  C:0185H         LINE#         18
  C:018FH         LINE#         19
  -------         ENDPROC       _DELAY
  -------         PROC          SMG
  C:010DH         LINE#         21
  C:010DH         LINE#         22
  C:010DH         LINE#         23
  C:0113H         LINE#         24
  C:0117H         LINE#         25
  C:011AH         LINE#         26
  C:0120H         LINE#         27
  C:0124H         LINE#         28
  C:0127H         LINE#         29
  C:012DH         LINE#         30
  C:0131H         LINE#         31
  C:0134H         LINE#         32
  C:013AH         LINE#         33
  C:013EH         LINE#         34
  C:0141H         LINE#         35
  C:0147H         LINE#         36
  C:014BH         LINE#         37
  C:014EH         LINE#         38
  C:0154H         LINE#         39
  C:0158H         LINE#         40
  C:015BH         LINE#         41
  C:0161H         LINE#         42
  C:0165H         LINE#         43
  C:0168H         LINE#         44
  C:016EH         LINE#         45
  C:0176H         LINE#         46
  -------         ENDPROC       SMG
  -------         PROC          MAIN
  C:008FH         LINE#         49
  C:008FH         LINE#         50
  C:008FH         LINE#         51
  C:008FH         LINE#         52
  C:008FH         LINE#         53
  C:0091H         LINE#         54
  C:009CH         LINE#         55
  C:009CH         LINE#         56
  C:009EH         LINE#         57
  C:00A1H         LINE#         58
  C:00ACH         LINE#         59
  C:00ACH         LINE#         60
BL51 BANKED LINKER/LOCATER V6.22.2.0                                                  12/27/2022  19:00:09  PAGE 4


  C:00AEH         LINE#         61
  C:00B1H         LINE#         62
  C:00BCH         LINE#         63
  C:00BCH         LINE#         64
  C:00BEH         LINE#         65
  C:00C1H         LINE#         66
  C:00CCH         LINE#         67
  C:00CCH         LINE#         68
  C:00CEH         LINE#         69
  C:00D1H         LINE#         70
  C:00DCH         LINE#         71
  C:00DCH         LINE#         72
  C:00DEH         LINE#         73
  C:00E1H         LINE#         74
  C:00ECH         LINE#         75
  C:00ECH         LINE#         76
  C:00EEH         LINE#         77
  C:00F1H         LINE#         78
  C:00FCH         LINE#         79
  C:00FCH         LINE#         80
  C:00FEH         LINE#         81
  C:0101H         LINE#         82
  C:0101H         LINE#         83
  C:0101H         LINE#         84
  C:0101H         LINE#         85
  C:0101H         LINE#         86
  C:0101H         LINE#         87
  C:0101H         LINE#         88
  C:0101H         LINE#         89
  C:0104H         LINE#         90
  C:010BH         LINE#         91
  -------         ENDPROC       MAIN
  -------         ENDMOD        MAIN

Program Size: data=33.0 xdata=0 code=419
LINK/LOCATE RUN COMPLETE.  0 WARNING(S),  0 ERROR(S)
