:03000000020003F8
:0C000300787FE4F6D8FD75811F02004AEA
:1001900010083F065B4F666D7D077F6F777C395E89
:0201A000797173
:08017D00F8E6F5807F647E00C6
:0B018500EF1FAC0670011E4C70F6224C
:10010D00D2A2D2A3D2A47408251812017DC2A2D204
:10011D00A3D2A47408251912017DD2A2C2A3D2A420
:10012D007408251A12017DC2A2C2A3D2A474082597
:10013D001B12017DD2A2D2A3C2A47408251C1201E8
:10014D007DC2A2D2A3C2A47408251D12017DD2A224
:10015D00C2A3C2A47408251E12017DC2A2C2A3C2ED
:10016D00A47408251FF8E6F5807F647E00020185E2
:10008F000518D3E51894097480948040650519E428
:10009F00F518D3E5199409748094804055051AE436
:1000AF00F519D3E51A9409748094804045051BE433
:1000BF00F51AD3E51B9409748094804035051CE430
:1000CF00F51BD3E51C9409748094804025051DE42D
:1000DF00F51CD3E51D9409748094804015051EE42A
:1000EF00F51DD3E51E9409748094804005051FE427
:0E00FF00F51E12010D7FC87E00120185808261
:10000F0002008FE493A3F8E493A34003F68001F278
:10001F0008DFF48029E493A3F85407240CC8C333F2
:10002F00C4540F4420C8834004F456800146F6DFC1
:10003F00E4800B0102040810204080900190E47EC0
:10004F00019360BCA3FF543F30E509541FFEE493B6
:10005F00A360010ECF54C025E060A840B8E493A37D
:10006F00FAE493A3F8E493A3C8C582C8CAC583CAA8
:10007F00F0A3C8C582C8CAC583CADFE9DEE780BE60
:0101A200005C
:00000001FF
