BL51 BANKED LINKER/LOCATER V6.22.2.0                                                    12/13/2022  16:00:01  PAGE 1


BL51 BANKED LINKER/LOCATER V6.22.2.0, INVOKED BY:
D:\KEIL_V5\C51\BIN\BL51.EXE .\Objects\STARTUP.obj, .\Objects\main.obj TO .\Objects\Template PRINT (.\Listings\Template.m
>> 51) RAMSIZE (256)


MEMORY MODEL: SMALL


INPUT MODULES INCLUDED:
  .\Objects\STARTUP.obj (?C_STARTUP)
  .\Objects\main.obj (MAIN)


LINK MAP OF MODULE:  .\Objects\Template (?C_STARTUP)


            TYPE    BASE      LENGTH    RELOCATION   SEGMENT NAME
            -----------------------------------------------------

            * * * * * * *   D A T A   M E M O R Y   * * * * * * *
            REG     0000H     0008H     ABSOLUTE     "REG BANK 0"
            IDATA   0008H     0001H     UNIT         ?STACK

            * * * * * * *   C O D E   M E M O R Y   * * * * * * *
            CODE    0000H     0003H     ABSOLUTE     
            CODE    0003H     003EH     UNIT         ?PR?MAIN?MAIN
            CODE    0041H     000CH     UNIT         ?C_C51STARTUP
            CODE    004DH     000BH     UNIT         ?PR?_DELAY?MAIN



OVERLAY MAP OF MODULE:   .\Objects\Template (?C_STARTUP)


SEGMENT
  +--> CALLED SEGMENT
---------------------
?C_C51STARTUP
  +--> ?PR?MAIN?MAIN

?PR?MAIN?MAIN
  +--> ?PR?_DELAY?MAIN



SYMBOL TABLE OF MODULE:  .\Objects\Template (?C_STARTUP)

  VALUE           TYPE          NAME
  ----------------------------------

  -------         MODULE        ?C_STARTUP
  C:0041H         SEGMENT       ?C_C51STARTUP
  I:0008H         SEGMENT       ?STACK
  C:0000H         PUBLIC        ?C_STARTUP
  D:00E0H         SYMBOL        ACC
  D:00F0H         SYMBOL        B
  D:0083H         SYMBOL        DPH
  D:0082H         SYMBOL        DPL
BL51 BANKED LINKER/LOCATER V6.22.2.0                                                  12/13/2022  16:00:01  PAGE 2


  N:0000H         SYMBOL        IBPSTACK
  N:0100H         SYMBOL        IBPSTACKTOP
  N:0080H         SYMBOL        IDATALEN
  C:0044H         SYMBOL        IDATALOOP
  N:0000H         SYMBOL        PBPSTACK
  N:0100H         SYMBOL        PBPSTACKTOP
  N:0000H         SYMBOL        PDATALEN
  N:0000H         SYMBOL        PDATASTART
  N:0000H         SYMBOL        PPAGE
  N:0000H         SYMBOL        PPAGEENABLE
  D:00A0H         SYMBOL        PPAGE_SFR
  D:0081H         SYMBOL        SP
  C:0041H         SYMBOL        STARTUP1
  N:0000H         SYMBOL        XBPSTACK
  N:0000H         SYMBOL        XBPSTACKTOP
  N:0000H         SYMBOL        XDATALEN
  N:0000H         SYMBOL        XDATASTART
  C:0000H         LINE#         126
  C:0041H         LINE#         133
  C:0043H         LINE#         134
  C:0044H         LINE#         135
  C:0045H         LINE#         136
  C:0047H         LINE#         185
  C:004AH         LINE#         196
  -------         ENDMOD        ?C_STARTUP

  -------         MODULE        MAIN
  C:0000H         SYMBOL        _ICE_DUMMY_
  D:0090H         PUBLIC        P1
  D:00A0H         PUBLIC        P2
  D:00B0H         PUBLIC        P3
  D:00A8H         PUBLIC        IE
  C:004DH         PUBLIC        _delay
  D:00B8H         PUBLIC        IP
  C:0003H         PUBLIC        main
  B:00B0H.4       PUBLIC        KEY2_DROP
  B:00A0H.3       PUBLIC        BEEP_DROP
  B:00B0H.5       PUBLIC        KEY3_DROP
  D:0098H         PUBLIC        SCON
  D:0088H         PUBLIC        TCON
  D:00C8H         PUBLIC        T2CON
  D:00D0H         PUBLIC        PSW
  -------         PROC          _DELAY
  D:0006H         SYMBOL        i
  C:004DH         LINE#         8
  C:004DH         LINE#         9
  C:004DH         LINE#         10
  C:0057H         LINE#         11
  -------         ENDPROC       _DELAY
  -------         PROC          MAIN
  C:0003H         LINE#         13
  C:0003H         LINE#         14
  C:0003H         LINE#         15
  C:0003H         LINE#         16
  C:0003H         LINE#         17
  C:0006H         LINE#         18
  C:0006H         LINE#         19
BL51 BANKED LINKER/LOCATER V6.22.2.0                                                  12/13/2022  16:00:01  PAGE 3


  C:000DH         LINE#         20
  C:0010H         LINE#         21
  C:0010H         LINE#         22
  C:0013H         LINE#         23
  C:0013H         LINE#         24
  C:0016H         LINE#         25
  C:0019H         LINE#         26
  C:0019H         LINE#         28
  C:001CH         LINE#         29
  C:001CH         LINE#         30
  C:0023H         LINE#         31
  C:0026H         LINE#         32
  C:0026H         LINE#         33
  C:0029H         LINE#         34
  C:0029H         LINE#         35
  C:002BH         LINE#         36
  C:0032H         LINE#         37
  C:0034H         LINE#         38
  C:0037H         LINE#         39
  C:0039H         LINE#         40
  C:0039H         LINE#         41
  C:003CH         LINE#         42
  C:003FH         LINE#         43
  C:003FH         LINE#         44
  -------         ENDPROC       MAIN
  -------         ENDMOD        MAIN

Program Size: data=9.0 xdata=0 code=88
LINK/LOCATE RUN COMPLETE.  0 WARNING(S),  0 ERROR(S)
