BL51 BANKED LINKER/LOCATER V6.22                                                        05/18/2023  11:55:30  PAGE 1


BL51 BANKED LINKER/LOCATER V6.22, INVOKED BY:
D:\KEIL5\C51\BIN\BL51.EXE .\Objects\STARTUP.obj, .\Objects\main.obj TO .\Objects\Template PRINT (.\Listings\Template.m51
>> )


MEMORY MODEL: SMALL


INPUT MODULES INCLUDED:
  .\Objects\STARTUP.obj (?C_STARTUP)
  .\Objects\main.obj (MAIN)


LINK MAP OF MODULE:  .\Objects\Template (?C_STARTUP)


            TYPE    BASE      LENGTH    RELOCATION   SEGMENT NAME
            -----------------------------------------------------

            * * * * * * *   D A T A   M E M O R Y   * * * * * * *
            REG     0000H     0008H     ABSOLUTE     "REG BANK 0"
            IDATA   0008H     0001H     UNIT         ?STACK

            * * * * * * *   C O D E   M E M O R Y   * * * * * * *
            CODE    0000H     0003H     ABSOLUTE     
            CODE    0003H     0016H     UNIT         ?PR?MAIN?MAIN
            CODE    0019H     0015H     UNIT         ?PR?UARTINIT?MAIN
            CODE    002EH     000CH     UNIT         ?C_C51STARTUP



OVERLAY MAP OF MODULE:   .\Objects\Template (?C_STARTUP)


SEGMENT
  +--> CALLED SEGMENT
---------------------
?C_C51STARTUP
  +--> ?PR?MAIN?MAIN

?PR?MAIN?MAIN
  +--> ?PR?UARTINIT?MAIN



SYMBOL TABLE OF MODULE:  .\Objects\Template (?C_STARTUP)

  VALUE           TYPE          NAME
  ----------------------------------

  -------         MODULE        ?C_STARTUP
  C:002EH         SEGMENT       ?C_C51STARTUP
  I:0008H         SEGMENT       ?STACK
  C:0000H         PUBLIC        ?C_STARTUP
  D:00E0H         SYMBOL        ACC
  D:00F0H         SYMBOL        B
  D:0083H         SYMBOL        DPH
  D:0082H         SYMBOL        DPL
BL51 BANKED LINKER/LOCATER V6.22                                                      05/18/2023  11:55:30  PAGE 2


  N:0000H         SYMBOL        IBPSTACK
  N:0100H         SYMBOL        IBPSTACKTOP
  N:0080H         SYMBOL        IDATALEN
  C:0031H         SYMBOL        IDATALOOP
  N:0000H         SYMBOL        PBPSTACK
  N:0100H         SYMBOL        PBPSTACKTOP
  N:0000H         SYMBOL        PDATALEN
  N:0000H         SYMBOL        PDATASTART
  N:0000H         SYMBOL        PPAGE
  N:0000H         SYMBOL        PPAGEENABLE
  D:00A0H         SYMBOL        PPAGE_SFR
  D:0081H         SYMBOL        SP
  C:002EH         SYMBOL        STARTUP1
  N:0000H         SYMBOL        XBPSTACK
  N:0000H         SYMBOL        XBPSTACKTOP
  N:0000H         SYMBOL        XDATALEN
  N:0000H         SYMBOL        XDATASTART
  C:0000H         LINE#         126
  C:002EH         LINE#         133
  C:0030H         LINE#         134
  C:0031H         LINE#         135
  C:0032H         LINE#         136
  C:0034H         LINE#         185
  C:0037H         LINE#         196
  -------         ENDMOD        ?C_STARTUP

  -------         MODULE        MAIN
  C:0000H         SYMBOL        _ICE_DUMMY_
  D:0090H         PUBLIC        P1
  D:00A0H         PUBLIC        P2
  D:00B0H         PUBLIC        P3
  D:00A8H         PUBLIC        IE
  D:00B8H         PUBLIC        IP
  B:0098H.0       PUBLIC        RI
  C:0003H         PUBLIC        main
  D:0099H         PUBLIC        SBUF
  D:0098H         PUBLIC        SCON
  C:0019H         PUBLIC        UartInit
  D:0089H         PUBLIC        TMOD
  D:0088H         PUBLIC        TCON
  D:008EH         PUBLIC        AUXR
  D:008DH         PUBLIC        TH1
  D:008BH         PUBLIC        TL1
  B:0088H.6       PUBLIC        TR1
  D:00C8H         PUBLIC        T2CON
  B:00A0H.0       PUBLIC        D1
  D:00D0H         PUBLIC        PSW
  -------         PROC          UARTINIT
  C:0019H         LINE#         6
  C:0019H         LINE#         7
  C:0019H         LINE#         8
  C:001CH         LINE#         9
  C:001FH         LINE#         10
  C:0022H         LINE#         11
  C:0025H         LINE#         12
  C:0028H         LINE#         13
  C:002BH         LINE#         14
BL51 BANKED LINKER/LOCATER V6.22                                                      05/18/2023  11:55:30  PAGE 3


  C:002DH         LINE#         15
  -------         ENDPROC       UARTINIT
  -------         PROC          MAIN
  -------         DO            
  D:0007H         SYMBOL        cmd
  -------         ENDDO         
  C:0003H         LINE#         17
  C:0003H         LINE#         18
  C:0003H         LINE#         20
  C:0006H         LINE#         21
  C:0006H         LINE#         22
  C:0006H         LINE#         23
  C:0009H         LINE#         24
  C:0009H         LINE#         25
  C:000BH         LINE#         26
  C:000EH         LINE#         27
  C:000EH         LINE#         28
  C:0010H         LINE#         29
  C:0010H         LINE#         30
  C:0013H         LINE#         31
  C:0013H         LINE#         32
  C:0015H         LINE#         33
  C:0015H         LINE#         34
  C:0017H         LINE#         35
  C:0017H         LINE#         36
  -------         ENDPROC       MAIN
  -------         ENDMOD        MAIN

Program Size: data=9.0 xdata=0 code=58
LINK/LOCATE RUN COMPLETE.  0 WARNING(S),  0 ERROR(S)
