:0300000002013CBE
:0C013C00787FE4F6D8FD7581180201837D
:1001DD0011083F065B4F666D7D077F6F777C395E3B
:0301ED0079710025
:0A01C800C2A3D2A2F5807FA87E61D9
:0B01D200EF1FAC0670011E4C70F622FF
:10000300E4FDEDC39408748094805064EDB408005B
:10001300504D90001CF82828730200340200380267
:10002300003C02004002004402004C020054020063
:100033005CD2A4800ED2A48012D2A48016D2A48053
:100043001AC2A4D2A3D2A28016C2A4D2A3C2A280EF
:100053000EC2A4C2A3D2A28006C2A4C2A3C2A27427
:10006300082DF8E6F5807F507EC31201D20D8092F1
:10007300E4FDEDC39408748094805061C2A4C2A3CC
:10008300C2A274082DF8E61201CCC2A4C2A3D2A264
:1000930074082DF8E6F580C2A4D2A3C2A21201CC43
:1000A300C2A4D2A3D2A274082DF8E6F580D2A4C2CA
:1000B300A3C2A21201CCD2A4C2A3D2A274082DF867
:1000C300E6F580D2A4D2A3C2A21201CCD2A4D2A3B9
:1000D300D2A274082DF8E6F5800D0200757D08EDB7
:1000E300C3941074809480504FC2A4C2A3C2A2745C
:1000F300082DF8E6F580C2A41201C8C2A4D2A3C297
:10010300A274082DF8E6F580C2A4D2A31201CAD2C4
:10011300A4C2A3C2A274082DF8E6F580D2A41201EA
:10012300C8D2A4D2A3C2A274082DF8E6F580D2A443
:08013300D2A31201CA0D80A73E
:01013B0022A1
:0501F10012000380FB79
:100148000201F1E493A3F8E493A34003F68001F2DB
:1001580008DFF48029E493A3F85407240CC8C333B8
:10016800C4540F4420C8834004F456800146F6DF87
:10017800E4800B01020408102040809001DDE47E39
:10018800019360BCA3FF543F30E509541FFEE4937C
:10019800A360010ECF54C025E060A840B8E493A343
:1001A800FAE493A3F8E493A3C8C582C8CAC583CA6E
:1001B800F0A3C8C582C8CAC583CADFE9DEE780BE26
:0101F000000E
:00000001FF
