BL51 BANKED LINKER/LOCATER V6.22                                                        02/25/2023  14:47:06  PAGE 1


BL51 BANKED LINKER/LOCATER V6.22, INVOKED BY:
D:\KEIL5\C51\BIN\BL51.EXE .\Objects\STARTUP.obj, .\Objects\main.obj TO .\Objects\Template PRINT (.\Listings\Template.m51
>> ) RAMSIZE (256)


MEMORY MODEL: SMALL


INPUT MODULES INCLUDED:
  .\Objects\STARTUP.obj (?C_STARTUP)
  .\Objects\main.obj (MAIN)


LINK MAP OF MODULE:  .\Objects\Template (?C_STARTUP)


            TYPE    BASE      LENGTH    RELOCATION   SEGMENT NAME
            -----------------------------------------------------

            * * * * * * *   D A T A   M E M O R Y   * * * * * * *
            REG     0000H     0008H     ABSOLUTE     "REG BANK 0"
            IDATA   0008H     0001H     UNIT         ?STACK

            * * * * * * *   C O D E   M E M O R Y   * * * * * * *
            CODE    0000H     0003H     ABSOLUTE     
            CODE    0003H     001AH     UNIT         ?PR?BEEP?MAIN
            CODE    001DH     0010H     UNIT         ?PR?MAIN?MAIN
            CODE    002DH     000CH     UNIT         ?C_C51STARTUP
            CODE    0039H     000BH     UNIT         ?PR?_DELAY?MAIN



OVERLAY MAP OF MODULE:   .\Objects\Template (?C_STARTUP)


SEGMENT
  +--> CALLED SEGMENT
---------------------
?C_C51STARTUP
  +--> ?PR?MAIN?MAIN

?PR?MAIN?MAIN
  +--> ?PR?BEEP?MAIN

?PR?BEEP?MAIN
  +--> ?PR?_DELAY?MAIN



SYMBOL TABLE OF MODULE:  .\Objects\Template (?C_STARTUP)

  VALUE           TYPE          NAME
  ----------------------------------

  -------         MODULE        ?C_STARTUP
  C:002DH         SEGMENT       ?C_C51STARTUP
  I:0008H         SEGMENT       ?STACK
  C:0000H         PUBLIC        ?C_STARTUP
BL51 BANKED LINKER/LOCATER V6.22                                                      02/25/2023  14:47:06  PAGE 2


  D:00E0H         SYMBOL        ACC
  D:00F0H         SYMBOL        B
  D:0083H         SYMBOL        DPH
  D:0082H         SYMBOL        DPL
  N:0000H         SYMBOL        IBPSTACK
  N:0100H         SYMBOL        IBPSTACKTOP
  N:0080H         SYMBOL        IDATALEN
  C:0030H         SYMBOL        IDATALOOP
  N:0000H         SYMBOL        PBPSTACK
  N:0100H         SYMBOL        PBPSTACKTOP
  N:0000H         SYMBOL        PDATALEN
  N:0000H         SYMBOL        PDATASTART
  N:0000H         SYMBOL        PPAGE
  N:0000H         SYMBOL        PPAGEENABLE
  D:00A0H         SYMBOL        PPAGE_SFR
  D:0081H         SYMBOL        SP
  C:002DH         SYMBOL        STARTUP1
  N:0000H         SYMBOL        XBPSTACK
  N:0000H         SYMBOL        XBPSTACKTOP
  N:0000H         SYMBOL        XDATALEN
  N:0000H         SYMBOL        XDATASTART
  C:0000H         LINE#         126
  C:002DH         LINE#         133
  C:002FH         LINE#         134
  C:0030H         LINE#         135
  C:0031H         LINE#         136
  C:0033H         LINE#         185
  C:0036H         LINE#         196
  -------         ENDMOD        ?C_STARTUP

  -------         MODULE        MAIN
  C:0000H         SYMBOL        _ICE_DUMMY_
  D:0090H         PUBLIC        P1
  D:00A0H         PUBLIC        P2
  D:00B0H         PUBLIC        P3
  D:00A8H         PUBLIC        IE
  D:00B8H         PUBLIC        IP
  B:00A0H.5       PUBLIC        BEEP
  C:001DH         PUBLIC        main
  D:0098H         PUBLIC        SCON
  D:0088H         PUBLIC        TCON
  B:00A0H.0       PUBLIC        LED
  D:00C8H         PUBLIC        T2CON
  C:0039H         PUBLIC        _Delay
  B:00B0H.1       PUBLIC        vibrate
  D:00D0H         PUBLIC        PSW
  C:0003H         PUBLIC        Beep
  -------         PROC          _DELAY
  D:0006H         SYMBOL        ten
  C:0039H         LINE#         7
  C:0039H         LINE#         8
  C:0039H         LINE#         9
  C:0043H         LINE#         10
  -------         ENDPROC       _DELAY
  -------         PROC          BEEP
  -------         DO            
  D:0002H         SYMBOL        i
BL51 BANKED LINKER/LOCATER V6.22                                                      02/25/2023  14:47:06  PAGE 3


  -------         ENDDO         
  C:0003H         LINE#         12
  C:0003H         LINE#         13
  C:0003H         LINE#         14
  C:0007H         LINE#         15
  C:0011H         LINE#         16
  C:0011H         LINE#         17
  C:0013H         LINE#         18
  C:001AH         LINE#         19
  C:001CH         LINE#         20
  -------         ENDPROC       BEEP
  -------         PROC          MAIN
  C:001DH         LINE#         22
  C:001DH         LINE#         23
  C:001DH         LINE#         24
  C:001DH         LINE#         25
  C:001DH         LINE#         26
  C:0020H         LINE#         27
  C:0020H         LINE#         28
  C:0022H         LINE#         29
  C:0025H         LINE#         30
  C:0027H         LINE#         31
  C:0029H         LINE#         33
  C:0029H         LINE#         34
  C:002BH         LINE#         36
  C:002BH         LINE#         37
  -------         ENDPROC       MAIN
  -------         ENDMOD        MAIN

Program Size: data=9.0 xdata=0 code=68
LINK/LOCATE RUN COMPLETE.  0 WARNING(S),  0 ERROR(S)
