BL51 BANKED LINKER/LOCATER V6.22                                                        02/27/2023  16:19:02  PAGE 1


BL51 BANKED LINKER/LOCATER V6.22, INVOKED BY:
D:\KEIL5\C51\BIN\BL51.EXE .\Objects\STARTUP.obj, .\Objects\main.obj TO .\Objects\Template PRINT (.\Listings\Template.m51
>> ) RAMSIZE (256)


MEMORY MODEL: SMALL


INPUT MODULES INCLUDED:
  .\Objects\STARTUP.obj (?C_STARTUP)
  .\Objects\main.obj (MAIN)


LINK MAP OF MODULE:  .\Objects\Template (?C_STARTUP)


            TYPE    BASE      LENGTH    RELOCATION   SEGMENT NAME
            -----------------------------------------------------

            * * * * * * *   D A T A   M E M O R Y   * * * * * * *
            REG     0000H     0008H     ABSOLUTE     "REG BANK 0"
            IDATA   0008H     0001H     UNIT         ?STACK

            * * * * * * *   C O D E   M E M O R Y   * * * * * * *
            CODE    0000H     0003H     ABSOLUTE     
            CODE    0003H     000FH     UNIT         ?PR?MAIN?MAIN
            CODE    0012H     000EH     UNIT         ?PR?DELAY2000MS?MAIN
            CODE    0020H     000CH     UNIT         ?C_C51STARTUP
            CODE    002CH     0005H     UNIT         ?PR?BEEP?MAIN



OVERLAY MAP OF MODULE:   .\Objects\Template (?C_STARTUP)


SEGMENT
  +--> CALLED SEGMENT
---------------------
?C_C51STARTUP
  +--> ?PR?MAIN?MAIN

?PR?MAIN?MAIN
  +--> ?PR?BEEP?MAIN

?PR?BEEP?MAIN
  +--> ?PR?DELAY2000MS?MAIN



SYMBOL TABLE OF MODULE:  .\Objects\Template (?C_STARTUP)

  VALUE           TYPE          NAME
  ----------------------------------

  -------         MODULE        ?C_STARTUP
  C:0020H         SEGMENT       ?C_C51STARTUP
  I:0008H         SEGMENT       ?STACK
  C:0000H         PUBLIC        ?C_STARTUP
BL51 BANKED LINKER/LOCATER V6.22                                                      02/27/2023  16:19:02  PAGE 2


  D:00E0H         SYMBOL        ACC
  D:00F0H         SYMBOL        B
  D:0083H         SYMBOL        DPH
  D:0082H         SYMBOL        DPL
  N:0000H         SYMBOL        IBPSTACK
  N:0100H         SYMBOL        IBPSTACKTOP
  N:0080H         SYMBOL        IDATALEN
  C:0023H         SYMBOL        IDATALOOP
  N:0000H         SYMBOL        PBPSTACK
  N:0100H         SYMBOL        PBPSTACKTOP
  N:0000H         SYMBOL        PDATALEN
  N:0000H         SYMBOL        PDATASTART
  N:0000H         SYMBOL        PPAGE
  N:0000H         SYMBOL        PPAGEENABLE
  D:00A0H         SYMBOL        PPAGE_SFR
  D:0081H         SYMBOL        SP
  C:0020H         SYMBOL        STARTUP1
  N:0000H         SYMBOL        XBPSTACK
  N:0000H         SYMBOL        XBPSTACKTOP
  N:0000H         SYMBOL        XDATALEN
  N:0000H         SYMBOL        XDATASTART
  C:0000H         LINE#         126
  C:0020H         LINE#         133
  C:0022H         LINE#         134
  C:0023H         LINE#         135
  C:0024H         LINE#         136
  C:0026H         LINE#         185
  C:0029H         LINE#         196
  -------         ENDMOD        ?C_STARTUP

  -------         MODULE        MAIN
  C:0000H         SYMBOL        _ICE_DUMMY_
  D:0090H         PUBLIC        P1
  D:00A0H         PUBLIC        P2
  D:00B0H         PUBLIC        P3
  D:00A8H         PUBLIC        IE
  C:0012H         PUBLIC        Delay2000ms
  D:00B8H         PUBLIC        IP
  B:00A0H.3       PUBLIC        relay
  C:0003H         PUBLIC        main
  D:0098H         PUBLIC        SCON
  D:0088H         PUBLIC        TCON
  D:00C8H         PUBLIC        T2CON
  B:00B0H.5       PUBLIC        vibrate
  D:00D0H         PUBLIC        PSW
  C:002CH         PUBLIC        Beep
  -------         PROC          DELAY2000MS
  -------         DO            
  D:0007H         SYMBOL        i
  D:0006H         SYMBOL        j
  D:0005H         SYMBOL        k
  -------         ENDDO         
  C:0012H         LINE#         8
  C:0012H         LINE#         9
  C:0012H         LINE#         12
  C:0013H         LINE#         13
  C:0015H         LINE#         14
BL51 BANKED LINKER/LOCATER V6.22                                                      02/27/2023  16:19:02  PAGE 3


  C:0017H         LINE#         15
  C:0019H         LINE#         17
  C:0019H         LINE#         19
  C:0019H         LINE#         20
  C:001BH         LINE#         21
  C:001DH         LINE#         22
  C:001FH         LINE#         23
  -------         ENDPROC       DELAY2000MS
  -------         PROC          BEEP
  C:002CH         LINE#         26
  C:002CH         LINE#         27
  C:002CH         LINE#         29
  C:002EH         LINE#         30
  -------         ENDPROC       BEEP
  -------         PROC          MAIN
  C:0003H         LINE#         34
  C:0003H         LINE#         35
  C:0003H         LINE#         36
  C:0003H         LINE#         37
  C:0003H         LINE#         38
  C:0006H         LINE#         39
  C:0006H         LINE#         40
  C:0009H         LINE#         41
  C:000BH         LINE#         42
  C:000EH         LINE#         43
  C:000EH         LINE#         44
  C:0010H         LINE#         45
  C:0010H         LINE#         46
  -------         ENDPROC       MAIN
  -------         ENDMOD        MAIN

Program Size: data=9.0 xdata=0 code=49
LINK/LOCATE RUN COMPLETE.  0 WARNING(S),  0 ERROR(S)
